:020000040800F2
:1000000000500020F516000811050008130500082F
:100010001505000817050008190500080000000074
:100020000000000000000000000000001B050008A8
:100030001D050008000000001F050008210500083C
:100040003D1700083D1700083D1700083D17000840
:100050003D1700083D170008290500083D17000856
:100060003D1700083D1700083D1700083D17000820
:100070003D1700083D1700083D1700083D17000810
:100080003D1700083D1700083D1700083D17000800
:100090003D1700083D1700083D1700083D170008F0
:1000A0003D1700083D1700083D1700083D170008E0
:1000B000350500083D1700083D1700083D170008EA
:1000C0003D1700083D1700083D1700083D170008C0
:1000D0003D1700083D1700083D1700083D170008B0
:1000E0003D1700083D1700083D17000800000000FC
:1000F0000000000000000000000000000000000000
:0C01000000000000000000005FF808F1A3
:10010C000348044B834202D0034B03B1184770479A
:10011C001000002010000020000000000548064BD5
:10012C001B1AD90F01EBA301491002D0034B03B1E9
:10013C00184770471000002010000020000000003D
:10014C0010B5064C237843B9FFF7DAFF044B13B113
:10015C000448AFF300800123237010BD1000002071
:10016C00000000009817000808B5054B1BB10549A5
:10017C000548AFF30080BDE80840FFF7CFBF00BFD4
:10018C000000000014000020981700082DE9F0432F
:10019C0089B004AD002404940594069407942A4B6A
:1001AC009A6942F010029A619A6902F01002019267
:1001BC00019A9A6942F020029A619A6902F020022F
:1001CC000292029A9A6942F004029A619B6903F0C6
:1001DC0004030393039BDFF8749022464FF4005101
:1001EC00484601F084F81A4F22460221384601F0A5
:1001FC007EF84FF4005304930126059606944FF0B5
:10020C000208CDF81C802946484600F077FF04967A
:10021C00104B059306962946384600F06FFFCDF833
:10022C00108005960694CDF81C802946384600F0BF
:10023C0065FF22462146062001F0C0F8062001F099
:10024C00CDF809B0BDE8F083001002400010014069
:10025C000008014000002110014BD3F8000C70473E
:10026C0000F0000870B586B0064601F01DF90025B7
:10027C000295094C04940123059301A902A801F0ED
:10028C00DFF932462B462146022001F065F901F0D8
:10029C0025F906B070BD00BF00FC000808B5036866
:1002AC00B3F1804F00D008BD164B1B785BB1164ADA
:1002BC00136801331360042BF5D90023114A137012
:1002CC00124A1360EFE7124B1A68104B1B68B3EB22
:1002DC00420F09D24FF400510E4801F00EF80B4AB0
:1002EC00136801331360DEE701224FF40051094813
:1002FC0000F0FDFF034B01221A70034B00221A6021
:10030C00D1E700BF3000002034000020380000206E
:10031C000000002000100140012800D0704710B5EB
:10032C0082B000F0D1FB0446174B1B68C31AB3F51F
:10033C007A7F26D30023019302E0019B01330193C2
:10034C00019A42F20F739A42F7DD01210F4800F037
:10035C00C7FF012815D00C4B1C600D4A13680133E4
:10036C001360062B02D9134604221A60084B186836
:10037C00FFF778FF0023074A1360074A1370074AF8
:10038C00136002B010BD00BF2C000020000801401B
:10039C000000002038000020300000203400002035
:1003AC0072B6FEE700B587B0002302930393049363
:1003BC0005930093019313484FF08042026041F67D
:1003CC003F724260836040F2E732C2600361836136
:1003DC0000F048FA80B94FF48053029302A90948FF
:1003EC0000F077FA50B9009001906946054800F08A
:1003FC00EFFA28B907B000BDFFF7D2FFFFF7D0FF27
:10040C00FFF7CEFF3C00002010B590B006AC2822C0
:10041C000021204601F08DF90023019302930393F0
:10042C00049305930223069301230A9310230B9341
:10043C00204600F079FB60B90F230193014602902E
:10044C0003900490059001A800F0A2FD18B910B01B
:10045C0010BDFFF7A5FFFFF7A3FF000010B500F0DC
:10046C0015FBFFF7D1FFFFF791FEFFF79BFF002273
:10047C0002211F4800F03BFFFFF7EEFE1D4B1860FA
:10048C000438022815D800F01FFB04460121184837
:10049C0000F026FFE8B900F017FB001B40F6B7335D
:1004AC009842F3D90420134B1860FFF7DBFE0024AD
:1004BC000DE004201860FFF7D5FEE4E74FF400517F
:1004CC000D4800F01AFF642000F004FB0134052CE9
:1004DC00F4DD01224FF40051074800F008FF00F052
:1004EC00F3FA064B1860064800F094F8FEE700BFDC
:1004FC000008014000000020001001402C000020EA
:10050C003C000020FEE7FEE7FEE7FEE7FEE7704753
:10051C007047704708B500F0CBFA08BD08B501204C
:10052C0000F0F4FE08BD000008B5024800F0A8F881
:10053C0008BD00BF3C00002082B00E4B9A6942F00F
:10054C0001029A619A6902F001020092009ADA693A
:10055C0042F08052DA61DB6903F080530193019B16
:10056C00054A536823F0E06343F00073536002B014
:10057C00704700BF00100240000001400368B3F157
:10058C00804F00D0704700B583B003F50433DA69AF
:10059C0042F00102DA61DB6903F001030193019B74
:1005AC00002211461C2000F009FF1C2000F016FF51
:1005BC0003B000BD036AD0F820C02CF0010CC0F8C9
:1005CC0020C0D0F818C02CF0F00C4CEA021223F02A
:1005DC000A030B43826103627047036AD0F820C0A0
:1005EC002CF0100CC0F820C0D0F818C02CF4704CB3
:1005FC004CEA023223F0A00343EA01138261036246
:10060C007047836823F070030B4343F00703836048
:10061C007047000090F83D30012B27D1022380F861
:10062C003D300268D36843F00103D3600368114A7C
:10063C00934210D0B3F1804F0DD0A2F59432934277
:10064C0009D002F58062934205D01A6842F001028B
:10065C001A60002070479A6802F00702062A07D039
:10066C001A6842F001021A6000207047012070479E
:10067C0000207047002C014070477047704770474E
:10068C0070B504460368DE681D6915F0020F10D0C2
:10069C0016F0020F0DD06FF002021A6101230377DE
:1006AC0003689B6913F0030F5ED0FFF7E6FF00238E
:1006BC00237715F0040F12D016F0040F0FD0236817
:1006CC006FF004021A610223237723689B6913F4E9
:1006DC00407F4FD02046FFF7D0FF0023237715F043
:1006EC00080F12D016F0080F0FD023686FF0080215
:1006FC001A61042323772368DB6913F0030F40D0BE
:10070C002046FFF7BAFF0023237715F0100F12D005
:10071C0016F0100F0FD023686FF010021A61082327
:10072C0023772368DB6913F4407F31D02046FFF731
:10073C00A4FF0023237715F0010F02D016F0010F50
:10074C002DD115F0800F02D016F0800F2FD115F09F
:10075C00400F02D016F0400F31D115F0200F02D00F
:10076C0016F0200F33D170BDFFF786FF2046FFF740
:10077C0085FF9CE72046FFF77FFF2046FFF77EFFB3
:10078C00ABE72046FFF778FF2046FFF777FFBAE785
:10079C002046FFF771FF2046FFF770FFC9E723687B
:1007AC006FF001021A612046FFF778FDC9E7236854
:1007BC006FF080021A61204600F041F9C7E7236808
:1007CC006FF040021A612046FFF759FFC5E7236816
:1007DC006FF020021A61204600F030F9C3E70000E8
:1007EC0003681F4A90420AD0B0F1804F07D0A2F59F
:1007FC009432904203D002F58062904203D123F0F0
:10080C0070034A681343164A90420AD0B0F1804FE5
:10081C0007D0A2F59432904203D002F58062904248
:10082C0003D123F44073CA68134323F080034A694D
:10083C00134303608B68C3620B688362084B984256
:10084C000AD001234361036913F0010F03D003693C
:10085C0023F00103036170470B690363F1E700BFE9
:10086C00002C014040B310B5044690F83D30F3B174
:10087C00022384F83D30214651F8040BFFF7B0FFFA
:10088C00012384F8463084F83E3084F83F3084F8F5
:10089C00403084F8413084F8423084F8433084F896
:1008AC00443084F8453084F83D30002010BD80F889
:1008BC003C30FFF763FEDBE701207047D0F808C03F
:1008CC002CF47F4C42EA03220A4342EA0C02826077
:1008DC00704790F83C30012B78D010B504460123BA
:1008EC0080F83C30022380F83D300268936823F492
:1008FC007F4323F0770393600B68602B4CD023D895
:10090C00402B54D011D8202B03D00AD80BB1102B6C
:10091C0005D119462068FFF774FE002028E001205D
:10092C0026E0302BF5D0012022E0502B0AD1CA68EA
:10093C0049680068FFF73EFE50212068FFF761FE12
:10094C00002015E0012013E0B3F5805F3AD0B3F539
:10095C00005F14D0702B37D1CB684A688968006867
:10096C00FFF7ACFF2268936843F077039360002095
:10097C00012384F83D30002384F83C3010BDCB6853
:10098C004A6889680068FFF799FF2268936843F406
:10099C00804393600020EBE7CA6849680068FFF762
:1009AC001CFE60212068FFF72CFE0020E0E7CA68DF
:1009BC0049680068FFF7FEFD40212068FFF721FE23
:1009CC000020D5E70020D3E70120D1E702207047B3
:1009DC0090F83C20012A2DD000B50346012280F866
:1009EC003C20022280F83D2002685068D2F808E0D2
:1009FC0020F0700C086840EA0C0050601A680E4831
:100A0C0082420AD0B2F1804F07D0A0F594308242D6
:100A1C0003D000F58060824205D12EF0800E49682B
:100A2C0041EA0E019160012283F83D20002083F8F9
:100A3C003C0000BD02207047002C014070477047FD
:100A4C0010B504460E4B18680E4B1A784FF47A7397
:100A5C00B3FBF2F3B0FBF3F000F0CEFC68B90F2C53
:100A6C0001D901200AE0024621464FF0FF3000F088
:100A7C00A5FC054B1C60002000E0012010BD00BF50
:100A8C000C000020040000200800002008B5074AD4
:100A9C00136843F010031360032000F07DFC0F205B
:100AAC00FFF7CEFFFFF748FD002008BD00200240F5
:100ABC00034A1168034B1B780B441360704700BF4B
:100ACC008400002004000020014B1868704700BF10
:100ADC008400002038B50446FFF7F6FF0546B4F154
:100AEC00FF3F02D0044B1B781C44FFF7EDFF401B6B
:100AFC00A042FAD338BD00BF0400002082B0084BDE
:100B0C001B68084AA2FB03235B0A00FB03F3019357
:100B1C0000BF019B5A1E0192002BF9D102B0704705
:100B2C000C000020D34D6210002800F0F38170B54A
:100B3C0082B00446036813F0010F2CD09A4B5B680B
:100B4C0003F00C03042B1DD0974B5B6803F00C03D4
:100B5C00082B12D06368B3F5803F41D0002B55D1E0
:100B6C0003F1804303F504331A6822F480321A60CF
:100B7C001A6822F480221A6037E08B4B5B6813F4FE
:100B8C00803FE7D0884B1B6813F4003F03D06368A9
:100B9C00002B00F0C181236813F0020F75D0824B3B
:100BAC005B6813F00C0F5FD07F4B5B6803F00C039A
:100BBC00082B54D02369002B00F08A807B4B012238
:100BCC001A60FFF781FF0546774B1B6813F0020F85
:100BDC0075D1FFF779FF401B0228F5D90320A0E15E
:100BEC00714A136843F480331360636843B3FFF7AF
:100BFC006BFF05466C4B1B6813F4003FCBD1FFF722
:100C0C0063FF401B6428F5D903208AE1B3F5A02FBC
:100C1C0009D0654B1A6822F480321A601A6822F4E3
:100C2C0080221A60E1E703F18043A3F53C331A6894
:100C3C0042F480221A601A6842F480321A60D4E7B7
:100C4C00FFF742FF0546584B1B6813F4003FA2D038
:100C5C00FFF73AFF401B6428F5D9032061E1524BA2
:100C6C005B6813F4803FA5D14F4B1B6813F0020F48
:100C7C0003D02369012B40F051814B4A136823F0B8
:100C8C00F803616943EAC1031360236813F0080F8A
:100C9C0033D0A369002B5DD0444B0122C3F88024D0
:100CAC00FFF712FF0546404B5B6A13F0020F21D190
:100CBC00FFF70AFF401B0228F5D9032031E13A4A1D
:100CCC00136823F0F803616943EAC1031360DCE79E
:100CDC00364B00221A60FFF7F7FE0546324B1B68B5
:100CEC0013F0020FD1D0FFF7EFFE401B0228F5D90D
:100CFC00032016E10120FFF701FF236813F0040F16
:100D0C0000F09880284BDB6913F0805F35D1264BBF
:100D1C00DA6942F08052DA61DB6903F080530193A7
:100D2C00019B01231E46224B1B6813F4807F27D0A6
:100D3C00E368012B3ED0002B54D103F1804303F523
:100D4C0004331A6A22F001021A621A6A22F00402AF
:100D5C001A6234E0154B0022C3F88024FFF7B4FE6E
:100D6C000546114B5B6A13F0020FC6D0FFF7ACFEC1
:100D7C00401B0228F5D90320D3E000231E46D2E7FE
:100D8C000B4A136843F480731360FFF79DFE05460E
:100D9C00074B1B6813F4807FCAD1FFF795FE401BED
:100DAC006428F5D90320BCE0001002400000424248
:100DBC00007000405F4A136A43F001031362E3685A
:100DCC0033B3FFF781FE05465A4B1B6A13F0020F33
:100DDC002FD1FFF779FE401B41F288339842F3D9AB
:100DEC0003209EE0052B09D0524B1A6A22F0010217
:100DFC001A621A6A22F004021A62E0E74D4B1A6A70
:100E0C0042F004021A621A6A42F001021A62D6E730
:100E1C00FFF75AFE0546474B1B6A13F0020F08D02A
:100E2C00FFF752FE401B41F288339842F3D903205E
:100E3C0077E0E6B9E369002B72D03E4A526802F0C3
:100E4C000C02082A56D0022B17D03B4B00221A66F4
:100E5C00FFF73AFE0446374B1B6813F0007F47D070
:100E6C00FFF732FE001B0228F5D9032059E0314A66
:100E7C00D36923F08053D361DCE72F4B00221A6631
:100E8C00FFF722FE05462B4B1B6813F0007F06D0A4
:100E9C00FFF71AFE401B0228F5D9032041E0236A14
:100EAC00B3F5803F1AD023494B6823F47413226A9C
:100EBC00606A024313434B601F4B01221A66FFF713
:100ECC0003FE04461B4B1B6813F0007F0ED1FFF78B
:100EDC00FBFD001B0228F5D9032022E0154A5368BC
:100EEC0023F40033A1680B435360DCE7002018E0C7
:100EFC00002016E0012B16D00E4B5B6803F48031FA
:100F0C00226A914211D103F47013626A93420ED19A
:100F1C00002006E001207047012002E0012000E0E3
:100F2C00184602B070BD0120FBE70120F9E7012053
:100F3C00F7E700BF00100240000042420F4B5B6815
:100F4C0003F00C02082A01D00D487047C3F383420A
:100F5C000C49885C13F4803F0BD0084B5B68C3F3DF
:100F6C004043094AD35C064A02FB00F0B0FBF3F0A5
:100F7C007047064B03FB00F0704700BF00100240A7
:100F8C0000127A00B4170008B017000800093D00E1
:100F9C00002800F0A08070B50D460446524B1B682B
:100FAC0003F007038B420BD24F4A136823F007035D
:100FBC000B431360136803F007038B4240F08D80E2
:100FCC00236813F0020F17D013F0040F04D0474A14
:100FDC00536843F4E0635360236813F0080F04D0A4
:100FEC00424A536843F460535360404A536823F0B9
:100FFC00F003A1680B435360236813F0010F31D049
:10100C006368012B20D0022B25D0384A126812F0CD
:10101C00020F64D035494A6822F0030213434B6037
:10102C00FFF752FD0646314B5B6803F00C03626818
:10103C00B3EB820F16D0FFF747FD801B41F28833CC
:10104C009842F0D9032045E0284A126812F4003F78
:10105C00E0D101203EE0254A126812F0007FD9D180
:10106C00012037E0204B1B6803F00703AB420AD981
:10107C001D4A136823F007032B431360136803F016
:10108C000703AB422DD1236813F0040F06D0174A87
:10109C00536823F4E063E1680B435360236813F057
:1010AC00080F07D0114A536823F46053216943EAAF
:1010BC00C1035360FFF742FF0C4B5B68C3F3031390
:1010CC000B4AD35CD8400B4B18600B4B1868FFF7DE
:1010DC00B7FC002070BD012070470120FAE7012009
:1010EC00F8E70120F6E700BF0020024000100240A4
:1010FC00C41700080C0000200800002070B582B056
:10110C004FF0000EF446A4E0012B28D0022B03D1A3
:10111C00CB6803F1080E24E01BBB8B68002B65D059
:10112C00012B5CD042614FF0080E1AE0664DAB42C9
:10113C00F3D00CD8A5F58015AB42EED005F5702593
:10114C00AB42EAD0A5F58015AB42E6D009E05F4D85
:10115C00AB42E2D005F58035AB42DED001E0D1F8F0
:10116C000CE0FF2C45D806464FEA8C0233680F255D
:10117C00954023EA05030EFA02F2134333604B68E1
:10118C0013F0805F63D0524B9A6942F001029A616E
:10119C009B6903F001030193019B4FEA9C02951C90
:1011AC004C4B53F825600CF00305AD000F23AB40FE
:1011BC0026EA0306484B984222D003F580639842F6
:1011CC0063D003F58063984261D003F58063984245
:1011DC0014D0042315E0CB6803F10C0EC1E70261B7
:1011EC004FF0080EBDE74FF0000EBAE74FF0040EBB
:1011FC00B7E7061DACF108029200B7E7032300E045
:10120C000023AB4033430232324D45F822304B6859
:10121C0013F4801F3DD0314A9368234393604B688D
:10122C0013F4001F3BD02D4AD3682343D3604B6883
:10123C0013F4003F39D0294A5368234353604B6859
:10124C0013F4803F37D0254A1368234313600CF105
:10125C00010C0B6833FA0CF233D0012202FA0CF2B7
:10126C0003EA020432EA0303F1D14B68032BBAD030
:10127C007FF64AAF122BAED03FF658AF112B7FF44E
:10128C0070AFCB6803F1040E6BE70123B9E70223BF
:10129C00B7E7124A936823EA04039360BFE70F4A47
:1012AC00D36823EA0403D360C1E70C4A536823EAEA
:1012BC0004035360C3E7094A136823EA0403136069
:1012CC00C5E702B070BD00BF000022100000311055
:1012DC0000100240000001400008014000040140E1
:1012EC008368194201D001207047002070470AB171
:1012FC0001617047090401617047C36801EA030288
:10130C0021EA030141EA02410161704708B5054B2E
:10131C005B69034200D108BD024B5861FEF7FCFF2C
:10132C00F9E700BF00040140002808DB0901C9B23D
:10133C0000F1604000F5614080F80013704700F048
:10134C000F000901C9B2014B1954704714ED00E0AC
:10135C0000B500F00700A0F1030CBCF1040F07D896
:10136C00C0F1070E0430062806D84FF0000C03E03D
:10137C004FF0040E4FF0000C4FF0FF3303FA0EF059
:10138C0021EA000101FA0CF103FA0CF322EA030240
:10139C0041EA020000BD0000074AD36823F4E06371
:1013AC001B041B0C000200F4E060034343F0BF631A
:1013BC0043F40033D360704700ED00E010B50446F1
:1013CC00054BD868C0F30220FFF7C2FF0146204648
:1013DC00FFF7AAFF10BD00BF00ED00E0002807DBFF
:1013EC0000F01F02400901239340024A42F82030CA
:1013FC00704700BF00E100E00138B0F1807F0BD2F4
:10140C004FF0E0235861054AF02182F823100020A8
:10141C00986107221A6170470120704700ED00E0C7
:10142C00044B0022DA61044A136943F0010313618F
:10143C00018070478800002000200240184BDB68B8
:10144C0013F0100305D0174AD36943F00203D3619C
:10145C001023134AD26812F0040F06D01149CA693E
:10146C0042F00102CA6143F004030D4AD26912F042
:10147C00010F0DD00B49CA6942F00402CA61084938
:10148C00CA6922F00102CA6140F20112934202D0F1
:10149C00034AD3607047CB6923F00103CB617047DB
:1014AC0000200240880000200A4B1B6913F0800FBB
:1014BC000BD0084B084A5A6002F188325A601B69FB
:1014CC0013F0800F03D100207047002070470120DB
:1014DC00704700BF0020024023016745034A13698F
:1014EC0043F0800313610020704700BF00200240CE
:1014FC0038B50446FFF7E8FA0546164BDB6813F0DF
:10150C00010F0AD0B4F1FF3FF7D024B1FFF7DCFA9A
:10151C00401BA042F1D903201BE00E4BDB6813F0FB
:10152C00200F02D00B4B2022DA600A4BDB6813F041
:10153C00100F0BD1074BDB6913F0010F06D1054BD4
:10154C00DB6813F0040F01D1002002E0FFF776FFF7
:10155C00012038BD002002402DE9F0411D46244BEE
:10156C001B7E012B41D004460E461746204B012210
:10157C001A764CF25030FFF7BBFF034678BB012CB8
:10158C0008D0022C03D04FF004081C4607E04FF0A3
:10159C000208FAE74FF00108F7E70134E4B24445DA
:1015AC001DD22101C1F12002A1F1200327FA01F182
:1015BC0005FA02F2114325FA03F3194389B206EB3B
:1015CC004400FFF72DFF4CF25030FFF791FF094A12
:1015DC00136923F00103136103460028DDD0044A8C
:1015EC00002111761846BDE8F0810223FAE700BF0E
:1015FC008800002000200240064B0022DA61064BD6
:10160C001A6942F004021A611A6942F040021A6126
:10161C00704700BF8800002000200240064B0022CB
:10162C00DA61064B1A6942F002021A6158611A69B2
:10163C0042F040021A6170478800002000200240EE
:10164C00264B1B7E012B46D070B505460E46234B10
:10165C0001221A760368022B20D04CF25030FFF78F
:10166C0047FF90BB4FF0FF333360AC680121EA6851
:10167C00AB6803EB8223A34228D92046FFF7CEFFA9
:10168C004CF25030FFF734FF154A136923F0020374
:10169C0013610146B8B904F58064E8E74CF25030A8
:1016AC00FFF726FF08B1012110E00120FFF7A4FF8E
:1016BC004CF25030FFF71CFF0146094A136923F026
:1016CC000403136102E0346000E00121034B0022AB
:1016DC001A76084670BD0221084670478800002023
:1016EC000020024070470000FFF7FCFF0B480C493C
:1016FC000C4A002302E0D458C4500433C4188C4262
:10170C00F9D3094A094C002301E013600432A242C8
:10171C00FBD300F017F8FEF7A1FE70470000002085
:10172C0010000020DC17000810000020A80000208A
:10173C00FEE703460244934200D1704703F8011BB5
:10174C00F9E7000070B500260C4C0D4B1D1BB6EBD9
:10175C00A50F09D1002600F019F80A4C0A4B1D1BE5
:10176C00B6EBA50F05D170BD54F8043B9847013674
:10177C00EDE754F8043B98470136F1E7D41700081D
:10178C00D4170008D4170008D8170008F8B500BF04
:10179C00F8BC08BC9E467047F8B500BFF8BC08BC46
:0417AC009E4670479E
:1017B0000102000002030405060708090A0B0C0DCC
:1017C0000E0F1010000000000000000001020304D2
:0417D00006070809F7
:0417D4007501000893
:0417D8004D010008B7
:1017DC0004000000010000001000000000127A005C
:04000005080016F5E4
:00000001FF
